:020000040800F2
:1000000028350120E9020008854D00082D09000867
:10001000814D0008310700083B5300080000000034
:100020000000000000000000000000003102000895
:100030003507000800000000850200087150000824
:100040000303000803030008030300080303000878
:100050000303000803030008030300080303000868
:100060000303000803030008030300080303000858
:100070000303000803030008030300080303000848
:100080000303000803030008030300080303000838
:100090000303000803030008030300080303000828
:1000A0000303000803030008030300080303000818
:1000B0000303000803030008030300080303000808
:1000C00003030008030300080303000803030008F8
:1000D00003030008E95000080303000803030008B5
:1000E00003030008030300080303000803030008D8
:1000F00003030008030300080303000803030008C8
:1001000003030008030300080303000803030008B7
:1001100003030008030300080303000803030008A7
:100120000303000803030008030300080303000897
:100130000303000803030008030300080303000887
:100140000303000803030008030300080303000877
:100150000303000803030008030300080303000867
:100160000303000803030008030300080303000857
:100170000303000803030008030300080303000847
:10018000030300080303000800F002F800F041F840
:100190000AA090E8000C82448344AAF10107DA45E2
:1001A00001D100F036F8AFF2090EBAE80F0013F0F3
:1001B000010F18BFFB1A43F0010318479C8E000083
:1001C000BC8E0000103A24BF78C878C1FAD8520714
:1001D00024BF30C830C144BF04680C6070470000C1
:1001E0000023002400250026103A28BF78C1FBD840
:1001F000520728BF30C148BF0B607047732900F019
:10020000F481002070471FB507F040FB1FBD10B5FB
:1002100010BD00F05EFA1146FFF7F5FF05F038F962
:1002200000F07CFA03B4FFF7F2FF03BC05F087F897
:100230002A4B19680868B0E8F04F80F30988BFF3CB
:100240006F8F4FF0000080F31188704700000000AE
:1002500006480068006880F3088862B661B6BFF39C
:100260004F8FBFF36F8F00DF00BF00BF08ED00E0CE
:10027000DFF80C00016841F470010160704700BFB5
:1002800088ED00E0EFF30980BFF36F8F134B1A681E
:100290001EF0100F08BF20ED108A20E9F04F10600B
:1002A00008B44FF0500080F31188BFF34F8FBFF3B5
:1002B0006F8F06F0C5FA4FF0000080F3118808BC7C
:1002C00019680868B0E8F04F1EF0100F08BFB0ECD6
:1002D000108A80F30988BFF36F8F70474C000020AD
:1002E000EFF3058070470000094880470948004740
:1002F000FEE7FEE7FEE7FEE7FEE7FEE7FEE7FEE7D6
:10030000FEE7FEE704480549054A064B7047000032
:100310008150000889010008282F0120283501207C
:100320002831012028310120704700000FB4044912
:1003300010B503AA029800F05DF910BC5DF814FB3B
:10034000340000200FB41CB5074B06AA7B44694655
:100350000090059800F01FF90020694600F02EF982
:100360001CBC5DF814FB00006D0200002DE9F0419B
:100370000E460446002020622046E168884730B3DC
:10038000252805D0D4E901219047206A401CF2E7D6
:10039000E168204600278847050018D0A5F14100F4
:1003A000192802D820354FF40067324629462046E6
:1003B0002760FFF723FF40B1012804D0F61D26F087
:1003C00007060836D8E7361DD6E72846DAE7206A5A
:1003D000BDE8F08170B50C460546012A05D02878A5
:1003E000800600D5EA69002302E0012305E05B1CDA
:1003F000934202D2E05C0028F9D1A869E618C01A3D
:10040000A861286A184428622846AFF3008004E0F7
:10041000D5E9012114F8010B9047B442F8D32846DE
:10042000AFF3008070BD032A40F2308010F0030C5F
:1004300000F0158011F8013BBCF1020F624498BF37
:1004400011F801CB00F8013B38BF11F8013BA2F1D4
:10045000040298BF00F801CB38BF00F8013B11F04F
:10046000030300F0D980083AC0F0088051F8043B3B
:10047000083A51F804CBA0E80810F5E7121D5CBF5C
:1004800051F8043B40F8043BAFF30080D20724BF8F
:1004900011F8013B11F801CB48BF11F8012B24BF23
:1004A00000F8013B00F801CB48BF00F8012B704772
:1004B00002F0FF0343EA032242EA024200F002B8DC
:1004C0004FF000020429C0F0128010F0030C00F07D
:1004D000D780CCF1040CBCF1020F18BF00F8012B3F
:1004E000A8BF20F8022BA1EB0C0100F0C9B85FEA0D
:1004F000C17C24BF00F8012B00F8012B48BF00F895
:10050000012B70474FF0013C50F8042B51F8043B8D
:100510009A4221D1A2EB0C03934313EACC1317D1D7
:1005200050F8042B51F8043B9A4215D1A2EB0C036E
:10053000934313EACC130BD150F8042B51F8043B2E
:100540009A4209D1A2EB0C03934313EACC13DBD0FC
:100550004FF00000704700BFD01A01BAB1FA81F124
:1005600001F0180122FA01F0CB40C1F12001DBB209
:10057000C0B2C01A2CFA01F3D11A914311EAC31187
:10058000E6D17047704770477047704701694A1C51
:1005900002610878704700B58FB0CDE901310021C4
:1005A000059105497944CDE9031011466846FFF7E6
:1005B000DDFE0FB000BD0000E5FFFFFF0A6802F896
:1005C000010B0A60704710B5436913B1AFF30080A7
:1005D00001E0FFF7FFFE012010BD127800F12401B9
:1005E0000A7000224A700122EDE711684FF0FF32D5
:1005F000E9E70000074B70B50D467B44FFF7CBFFE2
:100600000446284600F061F810B14FF0FF3070BD8D
:10061000204670BD134E000010B5203AC0F00B808C
:10062000B1E81850203AA0E81850B1E81850A0E8F6
:100630001850BFF4F5AF5FEA027C24BFB1E8185050
:10064000A0E8185044BF18C918C0BDE810405FEAC0
:10065000827C24BF51F8043B40F8043B08BF70473C
:10066000D20728BF31F8023B48BF11F8012B28BF41
:1006700020F8023B48BF00F8012B70474FF0000202
:1006800000B5134694469646203922BFA0E80C5088
:10069000A0E80C50B1F12001BFF4F7AF090728BF63
:1006A000A0E80C5048BF0CC05DF804EB890028BFDF
:1006B00040F8042B08BF704748BF20F8022B11F008
:1006C000804F18BF00F8012B7047007B00F08000BE
:1006D0007047754600F028F8AE4605006946534657
:1006E00020F00700854618B020B5FFF70BFEBDE8E7
:1006F00020404FF000064FF000074FF000084FF089
:10070000000B21F00701AC46ACE8C009ACE8C00919
:10071000ACE8C009ACE8C0098D4670470446AFF3A9
:1007200000802046FFF77EFD00487047C82E01205C
:1007300000BFFEE77047000051B18200A2F1C04245
:10074000126842F001038200A2F1C042136009E086
:100750008200A2F1C0421268034B1A408300A3F149
:10076000C0431A6070470000FEFF0F00D0E901127D
:100770001143C268114302691143426911438269FE
:100780001143C2691143026A1143426A1143826AEA
:100790001143C26A1143026B114302689200A2F135
:1007A000C0421160816808290BD101688900A1F15C
:1007B000C041096841F0400201688900A1F1C041CF
:1007C0000A60416B0968426B526841EA0211426B50
:1007D000926841EA0221426B928941EA0241426BEE
:1007E000128A41EA0251426B127D41EA0261426B78
:1007F000926911430268521C9200A2F1C04211603A
:10080000C16AB1F5804F1BD1816B0968826B526858
:1008100041EA0211826B926841EA0221826B128ADC
:1008200041EA0251826B127D41EA0261826B926958
:10083000114302689200A2F1C042C2F8041107E01D
:100840006FF0704201688900A1F1C041C1F8042134
:100850007047F0B50A4600210023002400BF3DE0A8
:10086000012505FA01F3156805EA03049C4234D119
:1008700005684F000326BE40B543056015794E005C
:10088000B5400668354305601579012D02D015790C
:10089000022D16D185684F000326BE40B543856002
:1008A00055794E00B5408668354385604568012618
:1008B0008E40B5434560456896798E40B6B2354363
:1008C0004560C5684F000326BE40B543C560D57975
:1008D0004E00B540C6683543C560491C1029BFD3DA
:1008E000F0BDF0B5002300244D07ED0E02FA05F32C
:1008F000CE1000F1200555F826504E07F70E0F26B2
:10090000BE40B543CF1000F1200646F82750CE1068
:1009100000F1200555F8265045EA0304CE1000F1F9
:10092000200545F82640F0BD0183704700BFFEE773
:1009300070B5044600261848058840884543164887
:10094000808846F60401884216D113488079012830
:1009500012D10020104988712A2048812B208881DB
:100960000021084604F030F801200B4988712B2043
:1009700048812A20888103E00021084604F024F8F9
:1009800004F0D2F9002603E04FF0D8404480761CF2
:10099000AE42F9D370BD0000C000002010B504467F
:1009A000002C66D16C498871F02008804FF4A0704B
:1009B00048800846808849F2413188420BD0664819
:1009C000808846F60401884205D06348808845F255
:1009D000103188421AD12C205F4908812A20488191
:1009E0002B2088810846808846F60401884205D07D
:1009F0005948808845F21031884206D14FF4A070E2
:100A0000554908804FF4F0704880A1E05248808832
:100A100045F21051884210D14FF430504E490881B0
:100A20004FF4285048814FF42C5088814FF4F070D7
:100A300008804FF4487048808AE04748808841F633
:100A4000631188420DD12C20434908812B20488115
:100A50002A2088814FF4F07008804FF44870488055
:100A600076E022203C49088120204881212088818D
:100A70006EE00120384988714FF4A0700880F020A2
:100A800048800846808849F24131884205D0324882
:100A9000808845F21031884207D12C202E490881E8
:100AA0002A2048812B2088813FE02B48808846F609
:100AB0000401884207D12C20274908812B20488136
:100AC0002A20888131E02448808845F210518842EC
:100AD00010D14FF43050204908814FF428504881FC
:100AE0004FF42C5088814FF4487008804FF4F07018
:100AF00048801AE01848808841F6631188420DD179
:100B00002C20154908812A2048812B2088814FF408
:100B1000487008804FF4F070488006E022200E49AB
:100B2000088121204881202088810B48808846F652
:100B30000401884205D00848808845F21031884277
:100B400006D14FF4F070044908804FF4A07048803B
:100B5000002003F0C3FD10BDC000002030B50446E6
:100B60000D462946204603F02FFF04F0DDF8034828
:100B700000884FF0D841488030BD00002C00002094
:100B80002DE9F04306460F469046002445460320D3
:100B9000A0EB48093CE07A1B91B2321990B2FFF702
:100BA000DDFF3A1B91B2721990B2FFF7D7FF3A19E5
:100BB00091B2721990B2FFF7D1FF7A1991B232193E
:100BC00090B2FFF7CBFF7A1991B2321B90B2FFF7C8
:100BD000C5FF3A1991B2721B90B2FFF7BFFF7A1BA3
:100BE00091B2321B90B2FFF7B9FF3A1B91B2721B60
:100BF00090B2FFF7B3FF641CB9F1000F03DAA00055
:100C0000801D814404E0601B80000A3081446D1E19
:100C1000AC42C0DDBDE8F08300B597B001210846C5
:100C200004F008F9002001900290072003900020B2
:100C300004900590069007900620089000200990E7
:100C40000A9010200B9000200C900D900E900F90A9
:100C500010904FF480501190002012901390149037
:100C600001A81590169008A8FFF780FD0121062025
:100C7000FFF762FD17B000BD70B504460D4616467D
:100C80005A48808849F24131884205D057488088C7
:100C900045F21031884214D15449488904F039F89A
:100CA000201204F02CF8E0B204F029F84F498889AA
:100CB00004F02FF8281204F022F8E8B204F01FF82C
:100CC0008CE04A48808845F21051884220D147493B
:100CD000488904F01EF8201204F011F843494989AC
:100CE000491C88B204F015F8E0B204F008F83F4956
:100CF000888904F00EF8281204F001F83B4989892C
:100D0000491C88B204F005F8E8B203F0F8FF65E08A
:100D10003648808841F66311884228D1334880796B
:100D200020B932480088401E001B84B22F494889F0
:100D300003F0EFFF201203F0E2FFE0B203F0DFFF69
:100D4000201203F0DCFFE0B203F0D9FF27498889C5
:100D500003F0DFFF281203F0D2FFE8B203F0CFFF69
:100D6000281203F0CCFFE8B203F0C9FF36E01F48B9
:100D7000808846F6040188421DD11C4880790128EC
:100D800004D11A480088401E001B84B217494889C4
:100D900003F0BFFF201203F0B2FFE0B203F0AFFF99
:100DA0001249888903F0B5FF281203F0A8FFE8B2C2
:100DB00003F0A5FF12E00D488079012804D10B480B
:100DC0000088401E001B84B208494889214603F070
:100DD000B3FF06498889294603F0AEFF034800891E
:100DE0004FF0D84108800846468070BDC000002002
:100DF00008B50020009003F095FBFFF70DFF3220AF
:100E000004F0C2FA0121002003F096FF322004F022
:100E1000BBFA002003F026FCFE4988800846808843
:100E2000FF280ADB084680884FF6FF71884204D00D
:100E3000F8488088B0F5134F7ED1D32003F069FFC6
:100E400003F008FCF349888003F004FCF149888032
:100E500003F000FCEF498880084680884FF6FF7158
:100E600001EA0020EB49888003F0F4FBE949898816
:100E70000843E84988800846808849F24131884221
:100E80005AD0BF2003F045FF03F0E4FBE14988801E
:100E900003F0E0FBDF49888003F0DCFBDD4988805C
:100EA00003F0D8FBDB498880084680884FF6FF7145
:100EB00001EA0020D749888003F0CCFBD549898816
:100EC0000843D44988800846808846F60401884251
:100ED0007AD0D42003F01DFF03F0BCFBCD498880FD
:100EE00003F0B8FBCB49888003F0B4FBC949888084
:100EF000084680884FF6FF7101EA0020C5498880C6
:100F000003F0A8FBC34989880843C2498880084682
:100F1000808845F21031884256D04FF45A4003F091
:100F2000F8FE03F097FBBB4988804FF45B4003F069
:100F3000F0FE03F08FFB00E046E0B64988800846EB
:100F400080884FF6FF7101EA0020B24988804FF493
:100F50005C4003F0DEFE03F07DFBAE498988084368
:100F6000AC49888008468088B0F5004F02D145F230
:100F700010508880A748808845F21051884223D0BD
:100F8000A12003F0C6FE03F065FBA249888003F0B0
:100F900061FBA0498880084680884FF6FF7101EA0E
:100FA00000209C49888003F055FB9A4989880843B2
:100FB000984988800846808845F26171884203D14B
:100FC00041F66310934988809248808849F2413104
:100FD000884211D08F48808845F2103188420BD06A
:100FE0008C48808845F21051884205D08948808815
:100FF00041F6631188421DD18748006820F00F0038
:101000004FF02041C1F81C010846D0F81C0120F423
:101010007060C1F81C010846D0F81C0140F00300C4
:10102000C1F81C010846D0F81C0140F40070C1F85A
:101030001C0128E07748808846F60401884205D0E4
:10104000744880884CF2055188421CD1724800686F
:1010500020F00F004FF02041C1F81C010846D0F8E5
:101060001C0120F47060C1F81C010846D0F81C0176
:1010700040F00A00C1F81C010846D0F81C0140F4F9
:101080004060C1F81C016348808849F241318842C0
:101090007ED1CF2003F03DFE002003F030FEC120C2
:1010A00003F02DFE302003F02AFEED2003F031FE88
:1010B000642003F024FE032003F021FE122003F03D
:1010C0001EFE812003F01BFEE82003F022FE852097
:1010D00003F015FE102003F012FE7A2003F00FFE3D
:1010E000CB2003F016FE392003F009FE2C2003F07C
:1010F00006FE002003F003FE342003F000FE022071
:1011000003F0FDFDF72003F004FE202003F0F7FDBF
:10111000EA2003F0FEFD002003F0F1FD002003F0C3
:10112000EEFDC02003F0F5FD1B2003F0E8FDC1201B
:1011300003F0EFFD012003F0E2FDC52003F0E9FD1F
:10114000302003F0DCFD302003F0D9FDC72003F090
:10115000E0FDB72003F0D3FD362003F0DAFD482090
:1011600003F0CDFD3A2003F0D4FD552003F0C7FD78
:10117000B12003F0CEFD002003F0C1FD1A2003F0E2
:10118000BEFDB62003F0C5FD0A2003F0B8FD00E067
:101190009CE0A22003F0B3FDF22003F0BAFD002092
:1011A00003F0ADFD262003F0B4FD012003F0A7FD00
:1011B000E02003F0AEFD0F2003F0A1FD2A2003F094
:1011C0009EFD282003F09BFD082003F098FD0E20D3
:1011D00003F095FD082003F092FD542003F08FFDED
:1011E000A92003F08CFD432003F089FD0A2003F0C1
:1011F00086FD0F2003F083FD002003F080FD00201A
:1012000003F07DFD002003F07AFD002003F077FD60
:10121000E12003E0C00000201C0100A003F079FDE4
:10122000002003F06CFD152003F069FD172003F08A
:1012300066FD072003F063FD112003F060FD06202A
:1012400003F05DFD2B2003F05AFD562003F057FDFF
:101250003C2003F054FD052003F051FD102003F065
:101260004EFD0F2003F04BFD3F2003F048FD3F20D3
:1012700003F045FD0F2003F042FD2B2003F049FD54
:10128000002003F03CFD002003F039FD012003F0B5
:1012900036FD3F2003F033FD2A2003F03AFD002005
:1012A00003F02DFD002003F02AFD002003F027FDB0
:1012B000EF2003F024FD112003F02BFD782004F033
:1012C00063F8292003F025FD03F01DB9FE4880884E
:1012D00046F6040188427CD1112003F01AFD142047
:1012E00004F052F8D02003F014FD072003F007FDAE
:1012F000422003F004FD1D2003F001FDD12003F086
:1013000008FD002003F0FBFC1A2003F0F8FC092084
:1013100003F0F5FCD22003F0FCFC012003F0EFFC0D
:10132000222003F0ECFCC02003F0F3FC102003F0BB
:10133000E6FC3B2003F0E3FC002003F0E0FC02208D
:1013400003F0DDFC112003F0DAFCC52003F0E1FC22
:10135000032003F0D4FCC82003F0DBFC002003F0E2
:10136000CEFC252003F0CBFC212003F0C8FC052097
:1013700003F0C5FC002003F0C2FC0A2003F0BFFC10
:10138000652003F0BCFC252003F0B9FC772003F0B6
:10139000B6FC502003F0B3FC0F2003F0B0FC00209B
:1013A00003F0ADFCF82003F0B4FC012003F0A7FC2F
:1013B000FE2003F0AEFC002003F0A1FC022003F0AD
:1013C0009EFC202003F0A5FC362003F0A2FC0820A0
:1013D00000E02CE003F093FC3A2003F09AFC552047
:1013E00003F08DFC2B2003F094FC002003F087FC1D
:1013F000002003F084FC012003F081FC3F2003F077
:101400007EFC2A2003F085FC002003F078FC0020FD
:1014100003F075FC012003F072FCDF2003F06FFC89
:10142000782003F0B1FF292003F073FC4CE7A648B5
:10143000808845F21031884240F07C87ED2003F02F
:1014400068FC012003F05BFCFE2003F058FCEE205A
:1014500003F05FFCDE2003F052FC212003F04FFC80
:10146000F12003F056FC012003F049FCDF2003F0DB
:1014700050FC102003F043FCC42003F04AFC8F20F2
:1014800003F03DFCC62003F044FC002003F037FCD1
:10149000E22003F034FCE22003F031FCE22003F010
:1014A0002EFCBF2003F035FCAA2003F028FCB0205E
:1014B00003F02FFC0D2003F022FC002003F01FFCA2
:1014C0000D2003F01CFC002003F019FC112003F098
:1014D00016FC002003F013FC192003F010FC002080
:1014E00003F00DFC212003F00AFC002003F007FCB0
:1014F0002D2003F004FC002003F001FC3D2003F04C
:10150000FEFB002003F0FBFB5D2003F0F8FB002056
:1015100003F0F5FB5D2003F0F2FB002003F0EFFB8E
:10152000B12003F0F6FB802003F0E9FB002003F07C
:10153000E6FB8B2003F0E3FB002003F0E0FB9620AA
:1015400003F0DDFB002003F0DAFBB22003F0E1FB47
:10155000002003F0D4FB002003F0D1FB022003F0B5
:10156000CEFB002003F0CBFB032003F0C8FB0020E0
:1015700003F0C5FBB32003F0CCFB002003F0BFFB5E
:10158000002003F0BCFB002003F0B9FB002003F0B7
:10159000B6FB002003F0B3FB002003F0B0FB0020FB
:1015A00003F0ADFB002003F0AAFB002003F0A7FB33
:1015B000002003F0A4FB002003F0A1FB002003F0B7
:1015C0009EFB002003F09BFB002003F098FB002013
:1015D00003F095FB002003F092FB002003F08FFB4B
:1015E000002003F08CFB002003F089FB002003F0B7
:1015F00086FB002003F083FB002003F080FB00202B
:1016000003F07DFB002003F07AFBB42003F081FBA4
:101610008B2003F074FB002003F071FB962003F095
:101620006EFB002003F06BFBA12003F068FB0020A1
:1016300003F065FBB52003F06CFB022003F05FFBB9
:10164000002003F05CFB032003F059FB002003F0B3
:1016500056FB042003F053FB002003F050FBB620A0
:1016600003F057FB002003F04AFB002003F047FB88
:10167000B72003F04EFB002003F041FB002003F0F5
:101680003EFB3F2003F03BFB002003F038FB5E20D5
:1016900003F035FB002003F032FB642003F02FFB46
:1016A000002003F02CFB8C2003F029FB002003F02A
:1016B00026FBAC2003F023FB002003F020FBDC2002
:1016C00003F01DFB002001E0C000002003F017FB29
:1016D000702003F014FB002003F011FB902003F0B6
:1016E0000EFB002003F00BFBEB2003F008FB0020B7
:1016F00003F005FBDC2003F002FB002003F0FFFAFF
:10170000B82003F006FB002003F0F9FA002003F0F4
:10171000F6FA002003F0F3FA002003F0F0FA0020BC
:1017200003F0EDFA002003F0EAFA002003F0E7FAF4
:10173000002003F0E4FABA2003F0EBFA242003F0CF
:10174000DEFA002003F0DBFA002003F0D8FA0020D4
:1017500003F0D5FAC12003F0DCFA202003F0CFFA21
:10176000002003F0CCFA542003F0C9FA002003F063
:10177000C6FAFF2003F0C3FA002003F0C0FAC2202B
:1017800003F0C7FA0A2003F0BAFA002003F0B7FA10
:10179000042003F0B4FA002003F0B1FAC32003F0F0
:1017A000B8FA3C2003F0ABFA002003F0A8FA3A2084
:1017B00003F0A5FA002003F0A2FA392003F09FFA03
:1017C000002003F09CFA372003F099FA002003F080
:1017D00096FA3C2003F093FA002003F090FA3620AA
:1017E00003F08DFA002003F08AFA322003F087FA22
:1017F000002003F084FA2F2003F081FA002003F088
:101800007EFA2C2003F07BFA002003F078FA2920DE
:1018100003F075FA002003F072FA262003F06FFA45
:10182000002003F06CFA242003F069FA002003F092
:1018300066FA242003F063FA002003F060FA232004
:1018400003F05DFA002003F05AFA3C2003F057FA47
:10185000002003F054FA362003F051FA002003F080
:101860004EFA322003F04BFA002003F048FA2F2002
:1018700003F045FA002003F042FA2C2003F03FFA6F
:10188000002003F03CFA292003F039FA002003F08D
:1018900036FA262003F033FA002003F030FA242031
:1018A00003F02DFA002003F02AFA242003F027FA8F
:1018B000002003F024FA232003F021FA002003F093
:1018C0001EFAC42003F025FA622003F018FA002063
:1018D00003F015FA052003F012FA002003F00FFAC6
:1018E000842003F00CFA002003F009FAF02003F042
:1018F00006FA002003F003FA182003F000FA002093
:1019000003F0FDF9A42003F0FAF9002003F0F7F941
:10191000182003F0F4F9002003F0F1F9502003F04F
:10192000EEF9002003F0EBF90C2003F0E8F90020B9
:1019300003F0E5F9172003F0E2F9002003F0DFF9E6
:10194000952003F0DCF9002003F0D9F9F32003F02F
:10195000D6F9002003F0D3F9E62003F0D0F90020F7
:1019600003F0CDF9C52003F0D4F9322003F0C7F914
:10197000002003F0C4F9442003F0C1F9002003F073
:10198000BEF9652003F0BBF9002003F0B8F976201A
:1019900003F0B5F9002003F0B2F9882003F0AFF9A5
:1019A000002003F0ACF9C62003F0B3F9202003F0C7
:1019B000A6F9002003F0A3F9172003F0A0F90020F6
:1019C00003F09DF9012003F09AF9002003F097F944
:1019D000C72003F09EF9002003F091F9002003F0E6
:1019E0008EF9002003F08BF9002003F088F9C8205D
:1019F00003F08FF9002003F082F9002003F07FF953
:101A0000002003F07CF9002003F079F9C92003F0ED
:101A100080F9002003F073F9002003F070F9002032
:101A200003F06DF9002003F06AF9002003F067F974
:101A3000002003F064F9002003F061F9002003F0B6
:101A40005EF9002003F05BF9002003F058F9002054
:101A500003F055F9002003F052F9002003F04FF98C
:101A6000002003F04CF9002003F049F9002003F0B6
:101A700046F9E02003F04DF9162003F040F900206C
:101A800003F03DF91C2003F03AF9002003F037F988
:101A9000212003F034F9002003F031F9362003F05F
:101AA0002EF9002003F02BF9462003F028F900203E
:101AB00003F025F9522003F022F9002003F01FF96A
:101AC000642003F01CF9002003F019F97A2003F0D8
:101AD00016F9002003F013F98B2003F010F9002011
:101AE00003F00DF9992003F00AF9002003F007F93B
:101AF000A82003F004F9002003F001F9B92003F055
:101B0000FEF8002003F0FBF8C42003F0F8F80020F2
:101B100003F0F5F8CA2003F0F2F8002003F0EFF824
:101B2000D22003F0ECF8002003F0E9F8D92003F00C
:101B3000E6F8002003F0E3F8E02003F0E0F80020EE
:101B400003F0DDF8F32003F0DAF8002003F0D7F813
:101B5000E12003F0DEF8162003F0D1F8002003F0B6
:101B6000CEF81C2003F0CBF8002003F0C8F82220A8
:101B700003F0C5F8002003F0C2F8362003F0BFF8E8
:101B8000002003F0BCF8452003F0B9F8002003F072
:101B9000B6F8522003F0B3F8002003F0B0F8642048
:101BA00003F0ADF8002003F0AAF87A2003F0A7F8BC
:101BB000002003F0A4F88B2003F0A1F8002003F02C
:101BC0009EF8992003F09BF8002003F098F8A820D5
:101BD00003F095F8002003F092F8B92003F08FF895
:101BE000002003F08CF8C42003F089F8002003F0F3
:101BF00086F8CA2003F083F8002003F080F8D22092
:101C000003F07DF8002003F07AF8D82003F077F88D
:101C1000002003F074F8E02003F071F8002003F0D6
:101C20006EF8F32003F06BF8002003F068F8E22070
:101C300003F06FF8052003F062F8002003F05FF86E
:101C40000B2003F05CF8002003F059F81B2003F090
:101C500056F8002003F053F8342003F050F8002029
:101C600003F04DF8442003F04AF8002003F047F851
:101C70004F2003F044F8002003F041F8612003F006
:101C80003EF8002003F03BF8792003F038F80020FC
:101C900003F035F8882003F032F8002003F02FF825
:101CA000972003F02CF8002003F029F8A62003F079
:101CB00026F8002003F023F8B72003F020F80020D6
:101CC00003F01DF8C22003F01AF8002003F017F803
:101CD000C72003F014F8002003F011F8D12003F01E
:101CE0000EF8002003F00BF8D62003F008F80020CF
:101CF00003F005F8DD2003F002F8002002F0FFFFFA
:101D0000F32002F0FCFF002002F0F9FFE32003F0D3
:101D100000F8052002F0F3FF002002F0F0FF0A2097
:101D200002F0EDFF002002F0EAFF1C2002F0E7FFC6
:101D3000002002F0E4FF332002F0E1FF002002F077
:101D4000DEFF442002F0DBFF002002F0D8FF50202D
:101D500002F0D5FF002002F0D2FF622002F0CFFF98
:101D6000002002F0CCFF782002F0C9FF002002F032
:101D7000C6FF882002F0C3FF002002F0C0FF9720BA
:101D800002F0BDFF002002F0BAFFA62002F0B7FF6C
:101D9000002002F0B4FFB72002F0B1FF002002F0F3
:101DA000AEFFC22002F0ABFF002002F0A8FFC72068
:101DB00002F0A5FF002002F0A2FFD12002F09FFF59
:101DC000002002F09CFFD52002F099FF002002F0D5
:101DD00096FFDD2002F093FF002002F090FFF32039
:101DE00002F08DFF002002F08AFFE42002F091FF54
:101DF000012002F084FF002002F081FF012002F0A8
:101E00007EFF002002F07BFF022002F078FF00201E
:101E100002F075FF2A2002F072FF002002F06FFF2F
:101E20003C2002F06CFF002002F069FF4B2002F022
:101E300066FF002002F063FF5D2002F060FF0020DB
:101E400002F05DFF742002F05AFF002002F057FFFD
:101E5000842002F054FF002002F051FF932002F092
:101E60004EFF002002F04BFFA22002F048FF0020AE
:101E700002F045FFB32002F042FF002002F03FFFD6
:101E8000BE2002F03CFF002002F039FFC42002F027
:101E900036FF002002F033FFCD2002F030FF00209B
:101EA00002F02DFFD32002F02AFF002002F027FFCE
:101EB000DD2002F024FF002002F021FFF32002F0D9
:101EC0001EFF002002F01BFFE52002F022FF002091
:101ED00002F015FF002002F012FF002002F00FFFB9
:101EE000002002F00CFF022002F009FF002002F0A7
:101EF00006FF292002F003FF002002F000FF3C2033
:101F000002F0FDFE002002F0FAFE4B2002F0F7FE88
:101F1000002002F0F4FE5D2002F0F1FE002002F04D
:101F2000EEFE742002F0EBFE002002F0E8FE8420BA
:101F300002F0E5FE002002F0E2FE932002F0DFFE58
:101F4000002002F0DCFEA22002F0D9FE002002F008
:101F5000D6FEB32002F0D3FE002002F0D0FEBE2059
:101F600002F0CDFE002002F0CAFEC42002F0C7FE3F
:101F7000002002F0C4FECD2002F0C1FE002002F0DD
:101F8000BEFED32002F0BBFE002002F0B8FEDC2033
:101F900002F0B5FE002002F0B2FEF32002F0AFFE28
:101FA000002002F0ACFEE62002F0B3FE112002F0A9
:101FB000A6FE002002F0A3FE342002F0A0FE0020C6
:101FC00002F09DFE562002F09AFE002002F097FEDD
:101FD000762002F094FE002002F091FE772002F0BD
:101FE0008EFE002002F08BFE662002F088FE0020AC
:101FF00002F085FE882002F082FE002002F07FFEC3
:10200000992002F07CFE002002F079FEBB2002F055
:1020100076FE002002F073FE992002F070FE002090
:1020200002F06DFE662002F06AFE002002F067FEFC
:10203000552002F064FE002002F061FE552002F0FF
:102040005EFE002002F05BFE452002F058FE0020FC
:1020500002F055FE432002F052FE002002F04FFE37
:10206000442002F04CFE002002F049FEE72002F07E
:1020700050FE322002F043FE002002F040FE5520C8
:1020800002F03DFE002002F03AFE762002F037FE1C
:10209000002002F034FE662002F031FE002002F043
:1020A0002EFE672002F02BFE002002F028FE6720A3
:1020B00002F025FE002002F022FE872002F01FFE23
:1020C000002002F01CFE992002F019FE002002F010
:1020D00016FEBB2002F013FE002002F010FE992035
:1020E00002F00DFE002002F00AFE772002F007FE4B
:1020F000002002F004FE442002F001FE002002F065
:10210000FEFD562002F0FBFD002002F0F8FD23202A
:1021100002F0F5FD002002F0F2FD332002F0EFFDA9
:10212000002002F0ECFD452002F0E9FD002002F065
:10213000E6FDE82002F0EDFD002002F0E0FD0020C9
:1021400002F0DDFD992002F0DAFD002002F0D7FD5B
:10215000872002F0D4FD002002F0D1FD882002F09B
:10216000CEFD002002F0CBFD772002F0C8FD00205C
:1021700002F0C5FD662002F0C2FD002002F0BFFDA6
:10218000882002F0BCFD002002F0B9FDAA2002F078
:10219000B6FD002002F0B3FDBB2002F0B0FD002030
:1021A00002F0ADFD992002F0AAFD002002F0A7FD8B
:1021B000662002F0A4FD002002F0A1FD552002F0EF
:1021C0009EFD002002F09BFD552002F098FD0020AE
:1021D00002F095FD442002F092FD002002F08FFDF8
:1021E000442002F08CFD002002F089FD552002F011
:1021F00086FD002002F083FDE92002F08AFDAA207E
:1022000002F07DFD002002F07AFD002002F077FD53
:10221000002002F074FD002002F07BFDAA2002F0F5
:102220006EFDCF2002F075FD002002F068FD002059
:1022300002F065FD002002F062FD002002F05FFD6B
:10224000002002F05CFD002002F059FD002002F0A9
:1022500056FD002002F053FD002002F050FD00204A
:1022600002F04DFD002002F04AFD002002F047FD83
:10227000002002F044FD002002F041FD002002F0A9
:102280003EFD002002F03BFD002002F038FDF02072
:1022900002F03FFD002002F032FD502002F02FFD41
:1022A000002002F02CFD002002F029FD002002F0A9
:1022B00026FDF32002F02DFD002002F020FDF92084
:1022C00002F027FD062002F01AFD102002F017FD93
:1022D000292002F014FD002002F011FD3A2002F046
:1022E00018FD552002F00BFD112002F012FD6420B4
:1022F00003F04AF8292002F00CFD352002F009FD18
:10230000002002F0FCFC512002F003FDFF2002F04F
:10231000F6FC532002F0FDFC2C2002F0F0FC5520CE
:1023200002F0F7FC822002F0EAFC2C2002F0F1FC23
:1023300002F0E9B8FE48808845F2105188427DD10C
:1023400055214FF4704002F0F7FCAA214FF2010032
:1023500002F0F2FC52214FF2020002F0EDFC0821E3
:102360004FF2030002F0E8FC01214FF2040002F0FA
:10237000E3FC0D214FF4304002F0DEFC0D214BF266
:10238000010002F0D9FC0D214BF2020002F0D4FC56
:1023900034214FF4364002F0CFFC34214BF201607F
:1023A00002F0CAFC34214BF2026002F0C5FC0D21A0
:1023B0004FF4314002F0C0FC0D214BF2011002F04D
:1023C000BBFC0D214BF2021002F0B6FC34214FF49D
:1023D000374002F0B1FC34214BF2017002F0ACFC4A
:1023E00034214BF2027002F0A7FC00214FF432407E
:1023F00002F0A2FC00214BF2012002F09DFC002122
:102400004BF2022002F098FC24214FF4384002F0F5
:1024100093FC24214BF6010002F08EFC24214BF6A4
:10242000020002F089FC01214FF43F4002F084FCDD
:102430000F214FF4334002F07FFC00E0FDE30F2159
:102440004BF2013002F078FC0F214BF2023002F027
:1024500073FC34214FF4394002F06EFC34214BF60A
:10246000011002F069FC34214BF6021002F064FC0A
:1024700008214FF4354002F05FFC08214BF2015077
:1024800002F05AFC08214BF2025002F055FC0321E5
:102490004FF4424002F050FC24214FF43A4002F045
:1024A0004BFC24214BF6012002F046FC24214BF684
:1024B000022002F041FC00214FF43C4002F03CFCC1
:1024C00078214BF6014002F037FC00214BF6024028
:1024D00002F032FC00214FF43D4002F02DFC782147
:1024E0004BF6015002F028FC00214BF6025002F09E
:1024F00023FC00214FF43E4002F01EFC64214BF609
:10250000016002F019FC00214FF4514002F014FC6C
:1025100033214DF2011002F00FFC00214DF20210A8
:1025200002F00AFC34214DF2031002F005FC0021F8
:102530004DF2041002F000FC3A214DF2051002F0B9
:10254000FBFB00214DF2061002F0F6FB4A214DF292
:10255000071002F0F1FB00214DF2081002F0ECFB35
:102560005C214DF2091002F0E7FB00214DF20A1048
:1025700002F0E2FB81214DF20B1002F0DDFB0021A5
:102580004DF20C1002F0D8FBA6214DF20D1002F016
:10259000D3FB00214DF20E1002F0CEFBE5214DF2EF
:1025A0000F1002F0C9FB01214DF2101002F0C4FB24
:1025B00013214DF2111002F0BFFB01214DF2121058
:1025C00002F0BAFB54214DF2131002F0B5FB0121C9
:1025D0004DF2141002F0B0FB82214DF2151002F002
:1025E000ABFB01214DF2161002F0A6FBCA214DF201
:1025F000171002F0A1FB02214DF2181002F09CFB13
:1026000000214DF2191002F097FB02214DF21A1031
:1026100002F092FB01214DF21B1002F08DFB022112
:102620004DF21C1002F088FB34214DF21D1002F017
:1026300083FB02214DF21E1002F07EFB67214DF25A
:102640001F1002F079FB02214DF2201002F074FB02
:1026500084214DF2211002F06FFB02214DF2221075
:1026600002F06AFBA4214DF2231002F065FB022167
:102670004DF2241002F060FBB7214DF2251002F05C
:102680005BFB02214DF2261002F056FBCF214DF2EA
:10269000271002F051FB02214DF2281002F04CFBF2
:1026A000DE214DF2291002F047FB02214DF22A10E3
:1026B00002F042FBF2214DF22B1002F03DFB022111
:1026C0004DF22C1002F038FBFE214DF22D1002F0DD
:1026D00033FB03214DF22E1002F02EFB10214DF2A0
:1026E0002F1002F029FB03214DF2301002F024FBE1
:1026F00033214DF2311002F01FFB03214DF2321055
:1027000002F01AFB6D214DF2331002F015FB00218F
:102710004FF4524002F010FB33214DF2012002F041
:102720000BFB00214DF2022002F006FB342101E0F8
:10273000C00000204DF2032002F0FEFA00214DF20D
:10274000042002F0F9FA3A214DF2052002F0F4FAE1
:1027500000214DF2062002F0EFFA4A214DF2072047
:1027600002F0EAFA00214DF2082002F0E5FA5C21BD
:102770004DF2092002F0E0FA00214DF20A2002F0A9
:10278000DBFA81214DF20B2002F0D6FA00214DF246
:102790000C2002F0D1FAA6214DF20D2002F0CCFA65
:1027A00000214DF20E2002F0C7FAE5214DF20F2074
:1027B00002F0C2FA01214DF2102002F0BDFA1321FD
:1027C0004DF2112002F0B8FA01214DF2122002F070
:1027D000B3FA54214DF2132002F0AEFA01214DF26A
:1027E000142002F0A9FA82214DF2152002F0A4FA79
:1027F00001214DF2162002F09FFACA214DF2172056
:1028000002F09AFA02214DF2182002F095FA002106
:102810004DF2192002F090FA02214DF21A2002F036
:102820008BFA01214DF21B2002F086FA02214DF2B3
:102830001C2002F081FA34214DF21D2002F07CFAB6
:1028400002214DF21E2002F077FA67214DF21F207F
:1028500002F072FA02214DF2202002F06DFA84217A
:102860004DF2212002F068FA02214DF2222002F0FE
:1028700063FAA4214DF2232002F05EFA02214DF208
:10288000242002F059FAB7214DF2252002F054FA23
:1028900002214DF2262002F04FFACF214DF22720DF
:1028A00002F04AFA02214DF2282002F045FADE2118
:1028B0004DF2292002F040FA02214DF22A2002F0C6
:1028C0003BFAF2214DF22B2002F036FA02214DF2B2
:1028D0002C2002F031FAFE214DF22D2002F02CFACC
:1028E00003214DF22E2002F027FA10214DF22F2065
:1028F00002F022FA03214DF2302002F01DFA3321BA
:102900004DF2312002F018FA03214DF2322002F08C
:1029100013FA6D214DF2332002F00EFA00214FF42C
:10292000534002F009FA33214DF2013002F004FA6B
:1029300000214DF2023002F0FFF934214DF2033054
:1029400002F0FAF900214DF2043002F0F5F93A21D3
:102950004DF2053002F0F0F900214DF2063002F0A0
:10296000EBF94A214DF2073002F0E6F900214DF271
:10297000083002F0E1F95C214DF2093002F0DCF997
:1029800000214DF20A3002F0D7F981214DF20B30CF
:1029900002F0D2F900214DF20C3002F0CDF9A6215F
:1029A0004DF20D3002F0C8F900214DF20E3002F068
:1029B000C3F9E5214DF20F3002F0BEF901214DF2CD
:1029C000103002F0B9F913214DF2113002F0B4F9D0
:1029D00001214DF2123002F0AFF954214DF21330C3
:1029E00002F0AAF901214DF2143002F0A5F982217A
:1029F0004DF2153002F0A0F901214DF2163002F02F
:102A00009BF9CA214DF2173002F096F902214DF2DE
:102A1000183002F091F900214DF2193002F08CF9D2
:102A200002214DF21A3002F087F901214DF21B30DC
:102A300002F082F902214DF21C3002F07DF93421BE
:102A40004DF21D3002F078F902214DF21E3002F0F5
:102A500073F967214DF21F3002F06EF902214DF239
:102A6000203002F069F984214DF2213002F064F93E
:102A700002214DF2223002F05FF9A4214DF2233001
:102A800002F05AF902214DF2243002F055F9B72133
:102A90004DF2253002F050F902214DF2263002F0BD
:102AA0004BF9CF214DF2273002F046F902214DF2C9
:102AB000283002F041F9DE214DF2293002F03CF9D4
:102AC00002214DF22A3002F037F9F2214DF22B307B
:102AD00002F032F902214DF22C3002F02DF9FE21E4
:102AE0004DF22D3002F028F903214DF22E3002F084
:102AF00023F910214DF22F3002F01EF903214DF27F
:102B0000303002F019F933214DF2313002F014F96E
:102B100003214DF2323002F00FF96D214DF23330C6
:102B200002F00AF900214FF4544002F005F9332174
:102B30004DF2014002F000F900214DF2024002F096
:102B4000FBF834214DF2034002F0F6F800214DF27B
:102B5000044002F0F1F83A214DF2054002F0ECF8A1
:102B600000214DF2064002F0E7F84A214DF20740FD
:102B700002F0E2F800214DF2084002F0DDF85C219D
:102B80004DF2094002F0D8F800214DF20A4002F05F
:102B9000D3F881214DF20B4002F0CEF800214DF226
:102BA0000C4002F0C9F8A6214DF20D4002F0C4F825
:102BB00000214DF20E4002F0BFF8E5214DF20F402A
:102BC00002F0BAF801214DF2104002F0B5F81321DD
:102BD0004DF2114002F0B0F801214DF2124002F026
:102BE000ABF854214DF2134002F0A6F801214DF24A
:102BF000144002F0A1F882214DF2154002F09CF839
:102C000001214DF2164002F097F8CA214DF217400B
:102C100002F092F802214DF2184002F08DF80021E6
:102C20004DF2194002F088F802214DF21A4002F0EC
:102C300083F801214DF21B4000E006E302F07CF82E
:102C400002214DF21C4002F077F834214DF21D4074
:102C500002F072F802214DF21E4002F06DF8672179
:102C60004DF21F4002F068F802214DF2204002F0C0
:102C700063F884214DF2214002F05EF802214DF20A
:102C8000224002F059F8A4214DF2234002F054F8FA
:102C900002214DF2244002F04FF8B7214DF22540B9
:102CA00002F04AF802214DF2264002F045F8CF2109
:102CB0004DF2274002F040F802214DF2284002F088
:102CC0003BF8DE214DF2294002F036F802214DF2A8
:102CD0002A4002F031F8F2214DF22B4002F02CF89C
:102CE00002214DF22C4002F027F8FE214DF22D403A
:102CF00002F022F803214DF22E4002F01DF81021BF
:102D00004DF22F4002F018F803214DF2304002F04E
:102D100013F833214DF2314002F00EF803214DF249
:102D2000324002F009F86D214DF2334002F004F810
:102D300000214FF4554001F0FFFF33214DF20150C7
:102D400001F0FAFF00214DF2025001F0F5FF3421AD
:102D50004DF2035001F0F0FF00214DF2045001F05C
:102D6000EBFF3A214DF2055001F0E6FF00214DF254
:102D7000065001F0E1FF4A214DF2075001F0DCFF5F
:102D800000214DF2085001F0D7FF5C214DF20950AF
:102D900001F0D2FF00214DF20A5001F0CDFF812158
:102DA0004DF20B5001F0C8FF00214DF20C5001F024
:102DB000C3FFA6214DF20D5001F0BEFF00214DF2E0
:102DC0000E5001F0B9FFE5214DF20F5001F0B4FFB4
:102DD00001214DF2105001F0AFFF13214DF21150BF
:102DE00001F0AAFF01214DF2125001F0A5FF54217C
:102DF0004DF2135001F0A0FF01214DF2145001F0EB
:102E00009BFF82214DF2155001F096FF01214DF2FA
:102E1000165001F091FFCA214DF2175001F08CFFBE
:102E200002214DF2185001F087FF00214DF2195098
:102E300001F082FF02214DF21A5001F07DFF0121C5
:102E40004DF21B5001F078FF02214DF21C5001F0B1
:102E500073FF34214DF21D5001F06EFF02214DF23F
:102E60001E5001F069FF67214DF21F5001F064FF11
:102E700002214DF2205001F05FFF84214DF22150DC
:102E800001F05AFF02214DF2225001F055FFA4211A
:102E90004DF2235001F050FF02214DF2245001F079
:102EA0004BFFB7214DF2255001F046FF02214DF2B4
:102EB000265001F041FFCF214DF2275001F03CFF99
:102EC00002214DF2285001F037FFDE214DF229504A
:102ED00001F032FF02214DF22A5001F02DFFF221C4
:102EE0004DF22B5001F028FF02214DF22C5001F041
:102EF00023FFFE214DF22D5001F01EFF03214DF264
:102F00002E5001F019FF10214DF22F5001F014FF47
:102F100003214DF2305001F00FFF33214DF23150BB
:102F200001F00AFF03214DF2325001F005FF6D213F
:102F30004DF2335001F000FF00214FF4564001F0F4
:102F4000FBFE33214DF2016001F0F6FE00214DF24F
:102F5000026001F0F1FE34214DF2036001F0ECFE5D
:102F600000214DF2046001F0E7FE3A214DF20560C8
:102F700001F0E2FE00214DF2066001F0DDFE4A2183
:102F80004DF2076001F0D8FE00214DF2086001F01B
:102F9000D3FE5C214DF2096001F0CEFE00214DF21E
:102FA0000A6001F0C9FE81214DF20B6001F0C4FE00
:102FB00000214DF20C6001F0BFFEA6214DF20D6024
:102FC00001F0BAFE00214DF20E6001F0B5FEE521E0
:102FD0004DF20F6001F0B0FE01214DF2106001F0E2
:102FE000ABFE13214DF2116001F0A6FE01214DF25E
:102FF000126001F0A1FE54214DF2136001F09CFE1D
:1030000001214DF2146001F097FE82214DF215600E
:1030100001F092FE01214DF2166001F08DFECA21F1
:103020004DF2176001F088FE02214DF2186001F0A8
:1030300083FE00214DF2196001F07EFE02214DF267
:103040001A6001F079FE01214DF21B6001F074FE5F
:1030500002214DF21C6001F06FFE34214DF21D6023
:1030600001F06AFE02214DF21E6001F065FE67214B
:103070004DF21F6001F060FE02214DF2206001F070
:103080005BFE84214DF2216001F056FE02214DF2DB
:10309000226001F051FEA4214DF2236001F04CFEAC
:1030A00002214DF2246001F047FEB7214DF2256068
:1030B00001F042FE02214DF2266001F03DFECF21DB
:1030C0004DF2276001F038FE02214DF2286001F038
:1030D00033FEDE214DF2296001F02EFE02214DF279
:1030E0002A6001F029FEF2214DF22B6001F024FE4E
:1030F00002214DF22C6001F01FFEFE214DF22D60E9
:1031000001F01AFE03214DF22E6001F015FE102190
:103110004DF22F6001F010FE03214DF2306001F0FE
:103120000BFE33214DF2316001F006FE03214DF21A
:10313000326001F001FE6D214DF2336001F0FCFDC3
:1031400055214FF4704001F0F7FDAA214FF2010024
:1031500001F0F2FD52214FF2020001F0EDFD0821D5
:103160004FF2030001F0E8FD00214FF2040001F0EE
:10317000E3FDCC214FF4314001F0DEFD00214BF2A4
:10318000011001F0D9FD05214FF4364001F0D4FDC6
:1031900070214FF4374001F0CFFD70214BF20170E8
:1031A00001F0CAFD01214FF4384001F0C5FD0321B3
:1031B0004BF6010001F0C0FD03214BF6020001F0C7
:1031C000BBFD03214BF6030001F0B6FD02214FF4D5
:1031D0003C4001F0B1FD00214BF6014001F0ACFD97
:1031E00000214BF6024001F0A7FDD0214FF44940E9
:1031F00001F0A2FD02214CF6011001F09DFD5021CD
:103200004CF6021001F098FD50214CF6031001F02D
:1032100093FD50214CF6041001F08EFD00214FF477
:10322000545001F089FD55214FF4685001F084FDA0
:103230004FF4885001F06DFD782002F0C5F84FF48E
:10324000245001F066FD01F05EB9FE48808849F225
:10325000253188427ED147F6F001E52001F06CFD72
:103260004FF48071012001F067FD4FF4E06102200E
:1032700001F062FD41F23001032001F05DFD00210B
:10328000042001F059FD40F20221082001F054FD14
:103290000021092001F050FD00210A2001F04CFD21
:1032A00000210C2001F048FD00210D2001F044FD1B
:1032B00000210F2001F040FD0021102001F03CFD15
:1032C0000721112001F038FD0021122001F034FD0A
:1032D0000021132001F030FD0021072001F02CFD1A
:1032E00041F29061102001F027FD40F227211120CA
:1032F00001F022FD9D21122001F01EFD4FF4C85166
:10330000132001F019FD2521292001F015FD0D21C3
:103310002B2001F011FD0721302001F00DFD40F2BE
:103320000331312001F008FD0321322001F004FDBA
:1033300040F20621352001F0FFFC0821362001F083
:10334000FBFC40F20641372001F0F6FC4FF44171DE
:10335000382000E057E001F0EFFC0721392001F0B0
:10336000EBFC40F202613C2001F0E6FC08213D202C
:1033700001F0E2FC0021502001F0DEFCEF215120A1
:1033800001F0DAFC0021522001F0D6FC40F23F119E
:10339000532001F0D1FC4FF42741602001F0CCFC18
:1033A0000121612001F0C8FC00216A2001F0C4FC69
:1033B0000021802001F0C0FC0021812001F0BCFC34
:1033C0000021822001F0B8FC0021832001F0B4FC30
:1033D0000021842001F0B0FC0021852001F0ACFC2C
:1033E0001021902001F0A8FC4FF4C061922001F060
:1033F000A3FC40F23311072001F09EFC22210020A3
:1034000001F09AFC1FE78F48808849F228318842F2
:103410007ED141F28F01EC2001F08EFC41F234218B
:10342000EF2001F089FC4FF48071012001F084FC51
:103430004FF4E061022001F07FFC41F230010320F3
:1034400001F07AFC0021042001F076FC40F2022118
:10345000082001F071FC0021092001F06DFC002121
:103460000A2001F069FC01210C2001F065FC00211B
:103470000D2001F061FC00210F2001F05DFC002116
:10348000102001F059FC0721112001F055FC00210A
:10349000122001F051FC0021132001F04DFC01210C
:1034A000072001F049FC322001F06EFF41F290410B
:1034B000102001F041FC40F22721112001F03CFCDA
:1034C000322001F061FF8A21122001F035FC322008
:1034D00001F05AFF4FF4D051132001F02DFC0621CA
:1034E000292001F029FC0D212B2001F025FC3220A0
:1034F00001F04AFF0021202001F01EFC00212120C4
:1035000001F01AFC322001F03FFF0021302000E0E2
:1035100074E001F011FC40F20461312001F00CFC78
:1035200040F20531322001F007FC0021352001F086
:1035300003FC40F60941362001F0FEFB4FF4017117
:10354000372001F0F9FB40F20131382001F0F4FBA3
:1035500040F20771392001F0EFFB00213C2001F01F
:10356000EBFB40F60A213D2001F0E6FB322001F0A2
:103570000BFF0021502001F0DFFBEF21512001F073
:10358000DBFB0021522001F0D7FB40F23F1153201A
:1035900001F0D2FB4FF42741602001F0CDFB012167
:1035A000612001F0C9FB00216A2001F0C5FB002168
:1035B000802001F0C1FB0021812001F0BDFB002132
:1035C000822001F0B9FB0021832001F0B5FB00212E
:1035D000842001F0B1FB0021852001F0ADFB10211A
:1035E000902001F0A9FB4FF4C061922001F0A4FBF0
:1035F00040F23311072001F09FFB24E61148808838
:1036000049F2203188427DD10021084601F094FB27
:103610004FF48071012001F08FFB4FF4E061022034
:1036200001F08AFB41F23001032001F085FB00210B
:10363000042001F081FB40F20221082001F07CFB14
:10364000002101E0C0000020092001F075FB0021ED
:103650000A2001F071FB01210C2001F06DFB00211B
:103660000D2001F069FB00210F2001F065FB3220E5
:1036700001F08AFE40F20111072001F05DFB3220CB
:1036800001F082FE4FF48651102001F055FB072116
:10369000112001F051FB4FF48871122001F04CFB16
:1036A0004FF43061132001F047FB0021292001F085
:1036B00043FB44F210012B2001F03EFB002150207F
:1036C00001F03AFBEF21512001F036FB002152209E
:1036D00001F032FB40F23F11532001F02DFB4FF47B
:1036E0001C51602001F028FB0121612001F024FB26
:1036F00000216A2001F020FB0021802001F01CFB4A
:10370000002100E031E0812001F016FB0021822041
:1037100001F012FB0021832001F00EFB0021842028
:1037200001F00AFB0021852001F006FB102190200A
:1037300001F002FB0021922001F0FEFA012193200A
:1037400001F0FAFA4FF48871952001F0F5FA0021A2
:10375000972001F0F1FA0021982001F0EDFA40F2F3
:103760007311072001F0E8FA6DE5FE48808849F200
:10377000313188427DD141F21401E72001F0DCFAB9
:103780004FF48071012001F0D7FA4FF4007102204C
:1037900001F0D2FA41F23801032001F0CDFA40F2F3
:1037A0000221082001F0C8FA0021092001F0C4FA22
:1037B00000210A2001F0C0FA00210C2001F0BCFA1F
:1037C00000210D2001F0B8FA00210F2001F0B4FA19
:1037D0000021102001F0B0FA0721112001F0ACFA0D
:1037E0000021122001F0A8FA0021132001F0A4FA10
:1037F000C82001F0C9FD41F29061102001F09CFA4F
:1038000040F22721112001F097FA322001F0BCFD8F
:103810000C21122001F090FA322001F0B5FD4FF496
:103820000061132001F088FA1121292001F084FAA7
:103830000B212B2001F080FA322001F0A5FD0021A0
:10384000202001F079FA40F23F11212001F074FAB2
:103850000021302001F070FA4FF48371312001F023
:103860006BFA0021322001F067FA4FF40171352024
:1038700000E064E001F060FA41F20A61362001F0F4
:103880005BFA40F20771372001F056FA4FF483716A
:10389000382001F051FA40F20771392001F04CFA5A
:1038A00040F202413C2001F047FA40F60F413D2032
:1038B00001F042FA0021502001F03EFAEF215120A0
:1038C00001F03AFA0021522001F036FA40F23F119D
:1038D000532001F031FA4FF41C51602001F02CFA12
:1038E0000121612001F028FA00216A2001F024FA68
:1038F0000021802001F020FA0021812001F01CFA33
:103900000021822001F018FA0021832001F014FA2E
:103910000021842001F010FA0021852001F00CFA2A
:103920001021902001F008FA4FF4C061922001F0BC
:1039300003FA40F23311072001F0FEF983E48948CD
:10394000808845F2084188427ED14FF48071012081
:1039500001F0F2F94FF4E061022001F0EDF941F2DB
:103960003001032001F0E8F90021042001F0E4F91E
:1039700040F20721082001F0DFF90021092001F0C1
:10398000DBF900210A2001F0D7F900210C2001F019
:10399000D3F900210D2001F0CFF900210F2001F013
:1039A000CBF9142001F0F0FC41F2B061102001F0DD
:1039B000C3F90121112001F0BFF90121172001F005
:1039C000BBF94FF49C71122001F0B6F94FF400617D
:1039D000132001F0B1F90921292001F0ADF90921E5
:1039E0002A2001F0A9F90021A42001F0A5F9002165
:1039F000502001F0A1F9EF21512001F09DF90021A3
:103A0000522001F099F940F23F11532001F094F94E
:103A10004FF41C51602001F08FF90121612001F069
:103A20008BF900216A2001F087F90021802001F044
:103A300083F90021812001F07FF90021822001F02B
:103A40007BF90021832000E023E001F075F90021DB
:103A5000842001F071F90021852001F06DF9132116
:103A6000902001F069F90021922001F065F903210D
:103A7000932001F061F94FF48871952001F05CF911
:103A800040F27311072001F057F9322001F07CFC5D
:103A9000B8E43448808841F2055188427ED1002143
:103AA000072001F049F9322001F06EFC4FF48E71CD
:103AB000122001F041F90121A42001F03DF90F216C
:103AC000082001F039F908210A2001F035F9082110
:103AD0000D2001F031F940F20771302001F02CF98E
:103AE0000721312001F028F940F20361322001F072
:103AF00023F94FF4E061332001F01EF940F2022176
:103B0000342001F019F90221352001F015F941F6B0
:103B10000F71362001F010F940F20771372001F0E3
:103B20000BF90021382001F007F90021392001F0BC
:103B300003F940F207713A2001F0FEF800213B2022
:103B400001F0FAF807213C2001F0F6F800213D20B1
:103B500001F0F2F8322001F017FC0121072001F0FA
:103B6000EBF801E0C00000200121172001F0E4F88B
:103B7000322001F009FC4FF4BD51102001F0DCF8B7
:103B800040F21721112001F0D7F84FF48F71122065
:103B900001F0D2F84FF47061132000E097E001F0DB
:103BA000CBF800212A2001F0C7F80A21292001F0D2
:103BB000C3F84FF49F71122001F0BEF8002150208D
:103BC00001F0BAF8EF21512001F0B6F8002152209F
:103BD00001F0B2F840F23F11532001F0ADF84FF47C
:103BE0001C51602001F0A8F80121612001F0A4F827
:103BF00000216A2001F0A0F80021802001F09CF84B
:103C00000021812001F098F80021822001F094F831
:103C10000021832001F090F80021842001F08CF82D
:103C20000021852001F088F81321902001F084F80C
:103C30004FF44071922001F07FF80521932001F0AC
:103C40007BF80021952001F077F80021972001F002
:103C500073F80021982001F06FF84FF48071012073
:103C600001F06AF84FF4E061022001F065F841F2DA
:103C70003801032001F060F80021042001F05CF815
:103C800000210C2001F058F800210F2001F054F819
:103C90000021202001F050F80021212001F04CF8F3
:103CA0002121072001F048F8142001F06DFB61216B
:103CB000072001F041F8142001F066FB40F2731177
:103CC000072001F039F8142001F05EFB95E4FE486E
:103CD00080884BF2055188427ED10021084601F0D0
:103CE0002BF80021084601F027F80021084601F0D2
:103CF00023F80021084601F01FF80121A42001F05B
:103D00001BF8142001F040FB4FF41C51602001F01F
:103D100013F840F20221082001F00EF84FF405716B
:103D2000302001F009F843F21571312001F004F858
:103D300040F20461322000F0FFFF40F616613320AC
:103D400000F0FAFF42F21121342000F0F5FF4FF4A9
:103D5000A851352000F0F0FF48F20751362000F05E
:103D6000EBFF41F20741372000F0E6FF41F203414B
:103D7000382000F0E1FF2021392000F0DDFF1A217A
:103D8000902000F0D9FF0021102000F0D5FF07217E
:103D9000112000F0D1FF0021122000F0CDFF002102
:103DA000132000F0C9FF142001F0EEFA4FF4E66191
:103DB000102000F0C1FF40F23711112000F0BCFFCD
:103DC000142001F0E1FA4FF4DC71122000F0B4FF8E
:103DD000142001F0D9FA00E083E04FF47061132061
:103DE00000F0AAFF80212A2000F0A6FF4821292008
:103DF00000F0A2FF142001F0C7FA4FF480710120F7
:103E000000F09AFF4FF4E061022000F095FF41F2CC
:103E10003801032000F090FF40F20221082000F05A
:103E20008BFF00210A2000F087FF00210C2000F00A
:103E300083FF00210D2000F07FFF30210E2000F0D5
:103E40007BFF0021502000F077FFEF21512000F090
:103E500073FF0021522000F06FFF40F23F1153200A
:103E600000F06AFF4FF41C51602000F065FF012153
:103E7000612000F061FF00216A2000F05DFF112148
:103E8000902000F059FF4FF4C061922000F054FFE1
:103E900040F20241932000F04FFF0221942000F0F5
:103EA0004BFF142001F070FA0121072000F044FFBD
:103EB000142001F069FA6121072000F03DFF40F273
:103EC0007311072000F038FF0021202000F034FF9C
:103ED0000021212000F030FF2221002000F02CFFE3
:103EE00011E3794880884CF2055188427ED1002147
:103EF000084600F021FF0021084600F01DFF1420B5
:103F000001F042FA0021084600F016FF00210846A1
:103F100000F012FF0021084600F00EFF00210846C5
:103F200000F00AFF0121A42000F006FF142001F098
:103F30002BFA4FF41C51602000F0FEFE40F6060103
:103F4000082000F0F9FE40F20371302000F0F4FE8A
:103F50000121312000F0F0FE0421322000F0ECFEBF
:103F60004FF48171332000F0E7FE4FF440713420AC
:103F700000F0E2FE40F20311352000F0DDFE1F21CB
:103F8000362000F0D9FE40F20371372000F0D4FE55
:103F90000121382000F0D0FE0421392000F0CCFEB1
:103FA0001521902000F0C8FE4FF48261102000F02F
:103FB000C3FE40F24721112000F0BEFE4FF4DE7137
:103FC000122000F0B9FE4FF46061132000F0B4FE3F
:103FD000782001F0D9F94FF48071012000F0ACFE97
:103FE0004FF40071022000F0A7FE00E050E041F223
:103FF0003001032000F0A0FE08210A2000F09CFE02
:1040000000210C2000F098FE20210E2000F094FEEC
:1040100000210F2000F090FE0021202000F08CFEF7
:104020000021212000F088FE3D212A2000F084FE9E
:10403000142001F0A9F92D21292000F07DFE002196
:10404000502000F079FE4DF2EF01512000F074FE97
:104050000021522000F070FE40F23F11532000F08A
:104060006BFE0021612000F067FE00216A2000F055
:1040700063FE4FF44071922000F05EFE0521932014
:1040800000F05AFE4FF48071072000F055FE3AE22E
:104090000D48808844F2315188427CD101210020B2
:1040A00000F04AFE0A2001F06FF941F22861102069
:1040B00000F042FE0E21122000F03EFE40F63921B3
:1040C000132000F039FE01E0C00000200A2001F0BA
:1040D0005BF94021112000F02FFE5021152000F047
:1040E0002BFE0A2001F050F91E21122000F024FEC0
:1040F0000A2001F049F94FF4B151102000F01CFEE4
:1041000042F63921132000F017FE0A2001F03CF995
:104110004FF48071012000F00FFE4FF44071022037
:1041200000F00AFE41F23801032000F005FE40F2E3
:104130000221082000F000FE08210A2000F0FCFD0A
:104140000021302000F0F8FD40F20241312000F063
:10415000F3FD4FF48371322000F0EEFD40F2035185
:10416000332000F0E9FD4FF48271342000F0E4FDCB
:1041700040F20131352000F0DFFD40F207713620BA
:1041800000F0DAFD40F20531372000F0D5FD4FF4A4
:104190000271382000E040E000F0CEFD40F60B71E7
:1041A000392000F0C9FD0221412000F0C5FD4FF487
:1041B0001C51602000F0C0FD0121612000F0BCFD19
:1041C0004FF40471902000F0B7FD4FF485719220F8
:1041D00000F0B2FD0421932000F0AEFD4FF4807199
:1041E000A02000F0A9FD0121072000F0A5FD21215C
:1041F000072000F0A1FD2321072000F09DFD3321C1
:10420000072000F099FD40F23311072000F094FDE3
:104210000021A02000F090FD75E1C048808844F2A4
:10422000355188427ED13021152000F085FD1021C6
:104230009A2000F081FD2021112000F07DFD43F245
:104240002841102000F078FD0221122000F074FDBA
:1042500041F23801132000F06FFD282001F094F89E
:104260001221084600F068FD282001F08DF843F285
:104270002041102000F060FD43F23801132000F0CF
:104280005BFD462001F080F80021302000F054FD55
:1042900040F20241312000F04FFD40F20731322060
:1042A00000F04AFD4FF44171332000F045FD042138
:1042B000342000F041FD40F20141352000F03CFD8A
:1042C00040F20771362000F037FD40F2053137200B
:1042D00000F032FD4FF4C261382000F02DFD4FF4A4
:1042E000C261392000F028FD4FF48071012000F0F8
:1042F00023FD4FF44071022000F01EFD41F2300119
:10430000032000F019FD40F60801082000F014FD1C
:1043100008210A2000F010FD4FF41C51602000F02D
:104320000BFD00E031E00121612000F005FD4FF4BC
:104330009F71902000F000FD4FF48071922000F0FA
:10434000FBFC4FF48071932000F0F6FC4FF44051D9
:10435000A02000F0F1FC1021A32000F0EDFC0121D1
:10436000072000F0E9FC2121072000F0E5FC2321D3
:10437000072000F0E1FC3321072000F0DDFC40F2D3
:104380003311072000F0D8FCBDE06448808841F676
:1043900063118842F8D1E22000F0BBFC1D2000F040
:1043A000AEFC022000F0ABFC042000F0A8FC64206E
:1043B00001F00AF8E02000F0ACFC012000F09FFCC6
:1043C0000A2000F0E1FFE02000F0A3FC032000F051
:1043D00096FC0C2000F0D8FF012000F09AFC0A2087
:1043E00000F0D2FFE62000F094FC2F2000F087FCC4
:1043F000FF2000F084FCFF2000F081FCB02000F0E2
:1044000088FC202000F07BFC002000F078FC0320DA
:1044100000F075FC40F21F3000F071FC012000F04C
:104420006EFC40F2DF1000F06AFC002000F067FC38
:10443000B42000F06EFC042000F061FC40F21F404C
:1044400000F05DFC002000F05AFC2E2000F057FC2C
:10445000002000F054FC002000F051FC002000F08F
:104460004EFC002000F04BFCB62000F052FC022075
:1044700000F045FC4FF4037000F041FC002000F018
:104480003EFC172000F03BFC152000F038FC00201B
:1044900000F035FC002000F032FCF02000F039FC88
:1044A000032000F02CFC292000F033FCD02000F089
:1044B00030FC002000F023FCBE2000F02AFC052088
:1044C00000F01DFCFE2000F01AFC012000F017FC9B
:1044D000002000F014FC002000F011FC002000F08F
:1044E0000EFCB82000F015FC032000F008FC0120B1
:1044F00000F005FCBA2000F00CFC012000F0FFFBEE
:10450000642000F0BBF80020FCF748FA01200449C1
:1045100008604FF6FF70FCF70BFA08BDC0000020E2
:10452000BC8240421CB50121782000F073FC4CF2A3
:104530003370009002208DF804008DF805000020F3
:104540008DF806008DF8070069463E48FCF781F9B2
:104550000C2200213B48FCF7C4F90C220121394808
:10456000FCF7BFF90C2204213648FCF7BAF90C22FB
:1045700005213448FCF7B5F90C2208213148FCF735
:10458000B0F90C2209212F48FCF7ABF90C220A21C3
:104590002C48FCF7A6F90C220E212A48FCF7A1F9B9
:1045A0000C220F212748FCF79CF94FF680700090F1
:1045B00069462548FCF74DF90C2207212248FCF7F3
:1045C00090F90C2208212048FCF78BF90C220921D4
:1045D0001D48FCF786F90C220A211B48FCF781F9DB
:1045E0000C220B211848FCF77CF90C2211461648C6
:1045F000FCF777F90C220D211348FCF772F90C2215
:104600000E211148FCF76DF90C220F210E48FCF722
:1046100068F90120009069460C48FCF71AF90C2251
:1046200000210A48FCF75DF94FF48050009069467C
:104630000748FCF70EF90C2211460548FCF751F922
:104640001CBD0000000C024000100240001402409B
:104650000018024008B54FF0D84040880090BDF8DF
:10466000000008BD10B50446204600F052FB0520AE
:1046700000F0AAFEFFF7EEFF10BD000070B52DEDB3
:10468000048B0446BE2000F044FB052000F037FBFD
:10469000204602F0EAFF41EC190B9FED0E0B53ECA4
:1046A000102B02F0F5FF41EC180B02F0B1FF85B2C0
:1046B000284600F024FB012000F021FBFF2000F041
:1046C0001EFB002000F01BFB002000F018FBBDECDF
:1046D000048B70BD6666666666660440F0B5054686
:1046E00000240027B748807901280BD1B54880887D
:1046F00046F60401884205D0B248808841F663112D
:10470000884208D1AF488079F0B9AE48808841F638
:104710006311884218D1082D15D2DFE805F0040690
:10472000080A0C0E101206250DE007250BE00425E3
:1047300009E0052507E0012505E0002503E0032544
:1047400001E0022500BF00BF9E48808849F2413148
:10475000884217D09B48808846F60401884211D0D1
:104760009848808845F2103188420BD0954880885F
:1047700045F21051884205D09248808841F6631175
:1047800088427DD1082D1CD2DFE805F00406090C13
:104790000F12151800BF14E044F0800411E044F03B
:1047A00040040EE044F0C0040BE044F0200408E0B4
:1047B00044F0600405E044F0A00402E044F0E004AA
:1047C00000BF00BF7F48808845F21051884202D167
:1047D0004FF4585700E036277A48808845F2103168
:1047E00088420DD07748808845F21051884207D022
:1047F0007448808841F66311884201D044F008046F
:104800007048808846F60401884201D144F00204D1
:104810002146384600F090FA6A48808841F66311D4
:1048200088421DD004F0200068B1664800886549C0
:104830004988884214DA63480688408861490880BC
:10484000084646800CE05F4800885E4949888842F7
:1048500006DD5C48068840885A490880084646803C
:104860005848808845F21051884254D155494889AA
:1048700000F04FFA002000F042FA5249498900E066
:1048800078E0491C88B200F044FA002000F037FAC2
:104890004C494989891C88B200F03BFA494909888A
:1048A000491EC1F30F2000F02AFA46494989C91C64
:1048B00088B200F02EFA43490978491EC8B200F0C8
:1048C0001EFA4049888900F024FA002000F017FA07
:1048D0003C498989491C88B200F01BFA002000F08D
:1048E0000EFA38498989891C88B200F012FA3549D4
:1048F0004988491EC1F30F2000F001FA3149898926
:10490000C91C88B200F005FA2E498978491EC8B240
:1049100000F0F5F955E02B49488900F0FAF900203C
:1049200000F0EDF9002000F0EAF926490988491E57
:10493000C1F30F2000F0E3F922490978491EC8B2FB
:1049400000F0DDF91F49888900F0E3F9002000F04C
:10495000D6F9002000F0D3F91A494988491EC1F35D
:104960000F2000F0CCF917498978491EC8B200F031
:10497000C6F926E0082D1CD2DFE805F004070A0D71
:104980000F12151844F0300413E044F0100410E046
:1049900044F020040DE000BF0BE044F0380408E0D0
:1049A00044F0280405E044F0180402E044F0080450
:1049B00000BF00BF032744F480542146384600F06E
:1049C000BBF9F0BDC000002030B504460D46674875
:1049D000808849F24131884205D06448808845F298
:1049E0001031884214D16149488900F092F92012AF
:1049F00000F085F9E0B200F082F95C49888900F0A6
:104A000088F9281200F07BF9E8B200F078F9ABE001
:104A10005648808846F6040188421DD15348807963
:104A2000012804D151480088401E001B84B24F4920
:104A3000488900F06EF9201200F061F9E0B200F050
:104A40005EF94A49888900F064F9281200F057F9A4
:104A5000E8B200F054F987E04448808841F66311D9
:104A6000884247D141488079A8B940480088401E13
:104A7000001B84B23D49488900F04BF9002000F04A
:104A80003EF9002000F03BF9201200F038F9E0B2C6
:104A900000F035F916E03549488900F03AF920125E
:104AA00000F02DF9E0B200F02AF930490988491EDA
:104AB000C1F30F2000F023F92C490978491EC8B230
:104AC00000F01DF92949888900F023F9281200F027
:104AD00016F9E8B200F013F924494988491EC1F3D8
:104AE0000F2000F00CF921498978491EC8B200F066
:104AF00006F939E01D48808845F21051884220D1DE
:104B00001A49488900F005F9201200F0F8F8174911
:104B10004989491C88B200F0FCF8E0B200F0EFF8D7
:104B20001249888900F0F5F8281200F0E8F80F49DA
:104B30008989491C88B200F0ECF8E8B200F0DFF88F
:104B400012E00A488079012804D108480088401EF4
:104B5000001B84B205494889214600F0EDF803495D
:104B60008889294600F0E8F830BD0000C000002028
:104B70002DE9F84F80460E4617461C46B3462046A0
:104B8000E31704EB5373DB1021464FEAE47C04EB9C
:104B90005C7C4FEAEC0CA4EBCC0CBCF1000F02D017
:104BA0004FF0010C01E04FF0000C6344224604EB8F
:104BB000D27C4FEA6C0C03FB0CF3DBB20093A7F141
:104BC0002000C7B2002556E00C2C07D107EB4700A8
:104BD0002B4901EB800010F8059013E0102C05D153
:104BE000284800EB071010F805900BE0182C07D1AF
:104BF00007EBC700244901EB800010F8059001E0A5
:104C0000BDE8F88F4FF0000A2FE009F0800030B1C6
:104C10001E48028831464046FCF72EF807E00A9805
:104C200028B91B48028831464046FCF725F84FEA70
:104C300049604FEA1069701C86B216484088B0423D
:104C400000DCDDE7A6EB0B00A0420AD15E4608F1CE
:104C500001001FFA80F80F480088404500DCCFE7CC
:104C600006E00AF1010000F0FF0ABAF1080FCCDB00
:104C700000BF681CC5B200988542A5DB00BFBFE736
:104C8000967800080A7D0008FA8200082C000020AF
:104C90002E000020C00000202DE9F84704460D46F4
:104CA00090469946DDE9096704F0FF0A08EB040025
:104CB0001FFA80F809EB05001FFA80F916E0444559
:104CC00002DB5446A81985B24D4500DB14E00020F4
:104CD00000903A78334629462046FFF749FF304690
:104CE00006EBD07104EB61018CB27F1C38787E2812
:104CF00002DC38782028E2DA00BFBDE8F88701B589
:104D0000BDF800000090BDF800004FF0D841488089
:104D100008BD01B5BDF800000090BDF800004FF0DF
:104D2000D841088008BD0000024800894FF0D841F2
:104D300008807047C00000204FF0D842108051809A
:104D4000704700001CB50121022000F063F801202B
:104D500000908DF8040000208DF8060003208DF8E7
:104D6000050001208DF8070069460448FBF771FD36
:104D700001210248FBF7D8FD1CBD000000040240E1
:104D800000BFFEE77047000070B5002100230F222E
:104D9000C4781CB3174C246804F4E064C4F5E064E0
:104DA000C4F30721C1F10404E3B20A4144789C40F2
:104DB000E1B28478144021430C07210E0E4C057893
:104DC0006155047804F01F050124AC4005786D118D
:104DD000AD0005F1E025C5F8004109E0047804F0D4
:104DE0001F050124AC40054D0678761145F8264094
:104DF00070BD00000CED00E000E400E080E100E0A8
:104E000002490143024A1160704700000000FA05A0
:104E10000CED00E029B1064A12680243044B1A6007
:104E200004E0034A12688243014B1A607047000095
:104E30003038024029B1064A12680243044B1A6016
:104E400004E0034A12688243014B1A607047000075
:104E50003838024029B1064A12680243044B1A60EE
:104E600004E0034A12688243014B1A607047000055
:104E700044380240F0B5002100220024022500261B
:104E80000223324F3F6807F00C0121B1042905D0FD
:104E9000082937D105E02E4F076036E02D4F076017
:104EA00033E02A4F3F1F3F68C7F38056274F3F1F0D
:104EB0003F6807F03F036EB1264FB7FBF3F7DFF80B
:104EC0008CC0ACF1040CDCF800C0CCF3881C07FBF0
:104ED0000CF40CE01E4FB7FBF3F7DFF870C0ACF139
:104EE000040CDCF800C0CCF3881C07FB0CF4174F53
:104EF0003F1F3F68C7F301477F1C7D00B4FBF5F7F8
:104F0000076002E0124F076000BF00BF0F4F3F680D
:104F100007F0F0010909104F7A5C0768D740476035
:104F20000A4F3F6807F4E051890A0B4F7A5C4768E3
:104F3000D7408760054F3F6807F46041490B064F33
:104F40007A5C4768D740C760F0BD0000083802406F
:104F50000024F40000127A003A0000200CB5002072
:104F6000019000903448006840F480303249086075
:104F700000BF3148006800F4003000900198401CE8
:104F80000190009818B90198B0F5A04FF1D12A48C6
:104F9000006800F4003010B10120009001E0002012
:104FA00000900098012846D123484030006840F026
:104FB00080502149403108602048006840F440405A
:104FC0001E4908601C48083000681B490831086009
:104FD0000846006840F4004008600846006840F455
:104FE000A05008601648091F0860081F006840F0BC
:104FF0008070091F086000BF0F48006800F0007053
:105000000028F9D040F205700E4908600A480830BF
:10501000006820F00300084908310860084600686D
:1050200040F00200086000BF03480830006800F04C
:105030000C000828F8D10CBD003802400070004078
:1050400008544007003C0240042808D14FF0E021FA
:10505000096941F004014FF0E022116107E04FF0CF
:10506000E021096921F004014FF0E022116170474D
:1050700010B502F073F8012801D001F0C5FC10BD95
:1050800010B51548006840F47000134908601348D3
:10509000006840F001001149086000200F49083104
:1050A00008600E4800680E4908400C4908600D4829
:1050B000091D0860081F006820F48020091F08608F
:1050C000002006490C310860FFF748FF4FF00060F0
:1050D00001498039086010BD88ED00E000380240C9
:1050E000FFFFF6FE1030002438B540F22551284865
:1050F00000F064F810B3264800F01AF9C4B225484D
:10510000008800F40040C8B92248008800F48040BC
:1051100060B10A2C03D000201E49088020E01D4801
:10512000008840F400401B49088019E00D2C06D18E
:105130001848008840F480401649088010E015485F
:105140000088C0F30D0014490C5412480088401C1C
:105150001049088008460088C72801DD0020088023
:105160000C48008800F4004088B10C48006870B119
:1051700069460A48006801F00BFF009838B14FF00B
:10518000805007490860BFF34F8FBFF36F8F38BD62
:105190000010014038000020CE0000201000002048
:1051A00004ED00E021B1828942F40052828104E0E2
:1051B00082894DF6FF731A408281704770B50246AE
:1051C000002400230025002040F66A16B14200D1D9
:1051D00000BFC1F3421501F01F03012606FA03F3D5
:1051E000012D02D19689334006E0022D02D1168AA4
:1051F000334001E0968A33400C12012606FA04F48B
:105200001688344013B10CB1012000E0002070BDBD
:10521000F0B50346002400260025002040F66A175A
:10522000B94200D100BF1846C1F3421401F01F0675
:10523000012707FA06F5012C01D10C3004E0022CFD
:1052400001D1103000E014301AB107682F43076015
:1052500002E00768AF430760F0BD00002DE9FF479B
:1052600005460E460024A14600BFA046B08900B105
:1052700000BF2C8A24F44054F08804432C82AC896B
:1052800041F20C608443B088318908437189084336
:105290000443AC81AC8A24F44074B0890443AC82EA
:1052A0006846FFF7E7FD2048854202D01F48854247
:1052B00002D1DDF80C9001E0DDF80890A88900F437
:1052C000004040B109EBC90000EB0910316849000A
:1052D000B0FBF1F707E009EBC90000EB09103168FA
:1052E0008900B0FBF1F76420B7FBF0F0040120095E
:1052F000642101FB1078A88900F4004040B13220FD
:1053000000EBC800B0FBF1F000F00700044308E038
:10531000322000EB08106421B0FBF1F000F00F0028
:1053200004432C81BDE8FF870010014000140140B8
:1053300001468888C0F30800704700BFFEE70146B9
:1053400000BF704770B504460420FFF77DFE0C488F
:10535000047025464FF47A704543012009490880BE
:105360004FF0E020006940F002004FF0E0210861BA
:1053700008464561006940F00100086170BD000009
:10538000300000203200002070B5044601F0E6FE37
:10539000012810D00B480088844206D309480088B1
:1053A000B4FBF0F5284601F09FF806480088B4FBEE
:1053B000F0F100FB11444FF47A7104FB01F000F0AE
:1053C00003F870BD3200002070B5034600224FF094
:1053D000E02675690D4E367803FB06F44FF0E026A3
:1053E000B16910E04FF0E026B06988420BD08842E6
:1053F00002D20E1A324402E02E1A0E443244014602
:10540000A24200D300E0EDE700BF70BD30000020F5
:1054100000BF054A128802F04002002AF9D0C2B249
:10542000014B9A8070470000001001401CB512E04B
:1054300009A018210B46F022CDE900100A210846E8
:10544000FFF72AFC322250216420FBF799FB4FF42E
:10545000FA7001F049F8EBE768656C6C6F206672D2
:10546000656572746F732C73746D3332663400002B
:1054700009E005480068C0430449C1F880024FF4C0
:10548000FA7001F031F8F4E7808240420080404237
:105490001CB54FF44070FFF7B3FCA820FFF752FF94
:1054A0004FF4E13000F0FEFDFFF74CFCFBF7A0FCF1
:1054B0004FF6FF70FBF73CFA4FF47840074908803D
:1054C0000748012100238022CDE9001005A10848EA
:1054D00001F014FE01F062F900201CBD2C00002038
:1054E0000000002073746172745F7461736B00005C
:1054F000016000082DE9F04105460E461C4807688A
:105500001C480068001D00F08BFE50B91948006867
:1055100090F82C10012088401749096881431648EB
:105520000160681C38B936B112480168091D13487A
:1055300000F0B4FE1AE07C190E4800684460BC42DA
:1055400007D20C480168091D0D48006800F08CFE68
:105550000CE008480168091D0A48006800F084FE54
:1055600009480068844201D207480460BDE8F08120
:10557000600000204C000020640000208C0200200D
:1055800054000020500000207C00002010B504468C
:1055900000F090FE24480068401C2349086023481E
:1055A000006840B9214804600846006801280DD110
:1055B00000F0DEF90AE01E48006838B91B480068B0
:1055C000C06AE16A884201D8184804601948006836
:1055D000401C1849086008460068206494F82C10A4
:1055E0000120884014490968084313490860E16AAA
:1055F00001EB8101114A02EB8100211D00F04EFEFA
:1056000000F082FE0A48006868B108480068C06A75
:10561000E16A884207D24FF0805009490860BFF321
:105620004F8FBFF36F8F10BD5C0000204C00002037
:10563000680000207800002064000020D8010020CD
:1056400004ED00E010B500F035FE10480068D0B958
:105650000F4800F0F9FD0F4800F0F6FD0C480E4928
:1056600008600C480D49086000220C210A2001F056
:10567000E5F9064908600846006820B108A103481A
:10568000006800F0F5FE00F03FFE10BD9000002025
:10569000A0020020B4020020880000208C0000201E
:1056A000546D72510000000070B523E001F0C0F8A5
:1056B0001348006808B9012000E00020054601F009
:1056C000B7FEBDB900F0F6FD0D48C068C468201DE6
:1056D00000F0A6FD0B480068401E0A4908600A4811
:1056E0000068401E0849086000F00EFE204600F0E9
:1056F00060F800BF044800680028D7D170BD0000E2
:10570000780200205C0000205800002070B504469C
:105710000D46206C70B1216CE0680844E06061685F
:10572000E068884201D32068E0602846226CE16886
:10573000FAF779FE70BD2DE9F04104460F46154693
:105740004FF00008A66B206C40B9206860BB606811
:1057500001F0BEFD80460020606025E07DB939463D
:10576000226CA068FAF75FFE216CA0680844A06074
:10577000D4E90110884217D32068A06014E03946AC
:10578000226CE068FAF74FFE216CE068401AE06096
:105790002168E068884203D2216C6068401AE060AA
:1057A000022D01D106B1761E701CA0634046BDE8F3
:1057B000F08110B50446206B00F0C4FD204600F0D7
:1057C000C1FD10BD0146084A126812680AB90122DB
:1057D00000E000220A600A6822B9034A1268D2680F
:1057E000106800E0002070478800002030B54FF4BA
:1057F0009633174800F007042CB1C01D20F00700B5
:10580000134C041B1B1B0246124C22600024114D3A
:105810006C60D018083820F007000F4C206000247E
:105820000D4D2D686C600C4D2D682C601146441A8E
:105830004C60094C24680C60084D4C682C60084D85
:105840004C682C604FF00044064D2C6030BD0000C9
:10585000C80200209C000020A4000020AC00002012
:10586000A8000020B000002000BFFFF71DFF064881
:1058700000680128F9D94FF0805004490860BFF34F
:105880004F8FBFF36F8FF0E7D801002004ED00E0E9
:105890002DE9F04106460D4617469846069C0DB97F
:1058A000246000E02760E66325640121204601F0C2
:1058B000D3F984F84C80BDE8F0812DE9F05F824691
:1058C0000F4690469B460A9E0C9C4FEA8801A522F3
:1058D000206BFAF7EDFDA8F10100216B01EB8009C7
:1058E00029F0070909F0070008B9012000E00020AD
:1058F00050B900BF502080F31188BFF34F8FBFF322
:105900006F8F00BF00BFFEE7002507E0795D04F15F
:1059100034004155785D00B902E06D1C0A2DF5D3C5
:1059200000BF00213D200155052E00D30426E6626C
:10593000A6640020E064201D00F093FC04F1180030
:1059400000F08FFC2461C6F10500A06164620020B4
:10595000206584F854005A465146484600F03AFB08
:1059600020600B9808B10B980460BDE8F09F000020
:1059700010B5002407E004EB84010F4A02EB81001C
:1059800000F062FC641C052CF5D30C4800F05CFCB4
:105990000B4800F059FC0B4800F056FC0A4800F098
:1059A00053FC0A4800F050FC0448094908600448C8
:1059B0000849086010BD0000D80100203C0200200A
:1059C0005002002064020020780200208C02002097
:1059D000500000205400002010B50146164800E099
:1059E000006803688B42FBD30246436813448B4232
:1059F00004D143684C682344436001460A464B681F
:105A000013440468A34211D10C4C03682468A342D8
:105A100008D04B680468646823444B6003681B68C3
:105A20000B6005E0054B1B680B6001E003680B6031
:105A3000884200D0016010BD9C000020A40000201E
:105A40002DE9F04104460D4616461F464FF000086A
:105A500065602461B5420CD8F01BA169884202D36D
:105A60004FF0010811E0211D0948006800F0FCFB1F
:105A70000BE0BE4204D2BD4202D34FF0010804E065
:105A8000211D0448006800F0EFFB4046BDE8F081AE
:105A90008C0000208800002070B5054600F00AFC4C
:105AA000A86B08B9012400E0002400F02DFC20467A
:105AB00070BD70B5054600F0FDFBA86BE96B884230
:105AC00001D1012400E0002400F01EFC204670BD3E
:105AD000F8B505460F4616480068C068C468201D22
